:020000040800F2
:1000000060050020A5010008331B0008AD19000899
:10001000311B0008B9020008DD25000800000000BF
:10002000000000000000000000000000E11C0008CB
:10003000E902000800000000351B0008E31C00086E
:10004000BF010008BF010008BF010008BF01000890
:10005000BF010008BF010008BF010008BF01000880
:10006000BF010008BF010008BF010008BF01000870
:10007000BF010008BF010008BF010008BF01000860
:10008000BF010008BF010008BF010008BF01000850
:10009000BF010008BF010008BF010008BF01000840
:1000A000BF010008BF010008BF010008BF01000830
:1000B000BF0100080000000000000000BF010008B0
:1000C000BF0100080000000000000000BF010008A0
:1000D00000000000092500081525000800000000A8
:1000E000BF010008BF010008000000000000000080
:1000F0000000000000000000000000000000000000
:10010000000000000000000000000000BF01000827
:100110000000000000000000BF010008BF0100084F
:10012000BF010008BF010008BF010008BF010008AF
:10013000BF010008000000000000000000000000F7
:10014000BF010008BF010008BF010008BF0100088F
:10015000BF010008BF010008BF010008BF0100087F
:10016000BF010008BF010008BF0100080000000037
:10017000BF010008BF0100080000000000000000EF
:10018000BF010008BF010008BF010008DFF810D060
:1001900000F080F8004800471D260008AFF30080FB
:1001A000600500200648804706480047FEE7FEE756
:1001B000FEE7FEE7FEE7FEE7FEE7FEE7FEE7FEE717
:1001C0007D1D00088D0100082DE9F05F0546002027
:1001D00092469B4688460646814640241BE02846B8
:1001E00041464746224600F044F853465A46C01A54
:1001F000914110D311461846224600F02BF82D1AD3
:1002000067EB01084F4622460120002100F022F84A
:1002100017EB00094E41201EA4F10104DFDC484623
:1002200031462A46434600F000B830BCBDE8C09FC6
:10023000D2B201E000F8012B491EFBD27047002228
:10024000F6E710B513460A4604461946FFF7F0FFD5
:10025000204610BD202A04DB203A00FA02F10020DB
:1002600070479140C2F1200320FA03F319439040F4
:100270007047202A04DB203A21FA02F0002170475F
:1002800021FA02F3D040C2F12002914008431946FE
:1002900070470000064C074D06E0E06840F001039F
:1002A00094E8070098471034AC42F6D3FFF772FF8A
:1002B00080270008A0270008FEE7000070B5012293
:1002C00040214FF0904000F01FF9064D0F246000D0
:1002D00029688862502000F02FF8E41C4B2CF6DBD4
:1002E00070BD000014000020704710B590F8251074
:1002F0000024022903D00421C16301241AE001680B
:100300000A6822F00E020A6001680A6822F00102FF
:100310000A6090F84410036C01F01C02012101FAFC
:1003200002F25A6080F82510002180F82410816BB9
:1003300001B18847204610BD70B5044600F0EAF8C8
:100340000546601C02D004480078044400F0E2F83E
:10035000401BA042FAD370BD040000202DE9FC4FE1
:10036000DFF880A1002301250AF1040B03244FF0DC
:100370000F0C0BF1040EAEE005FA03F632406FD01D
:100380004F68012F05D0022F03D0112F01D0122F5B
:1003900017D1D0F808905F0004FA07F829EA080995
:1003A0000097D1F80C8008FA07F848EA0908C0F865
:1003B00008804768B7430E79C6F300169E403E4357
:1003C0004660C6684FEA430804FA08F7BE4301973F
:1003D0008F6807FA08F73743C7604E68022E01D0CE
:1003E000122E13D1DE0800EB86060096366A5F07F0
:1003F000FF0E0CFA07F926EA0906D1F8109009FA5F
:1004000007F949EA0609009EC6F820900768019E90
:10041000B7430E7906F0030606FA08F63E43066077
:100420004E68F60056D5304E376E47F001073766F6
:10043000366E23F0030706F0010600962B4E3E446D
:10044000B146B6689F074FEA17780CFA08F7BE4323
:10045000B0F1904F05D0264FB84204D1012708E0F3
:1004600038E0002705E0234FB84201D1022700E021
:10047000072707FA08F73743C9F80870DAF8006069
:100480005746D1F8048096435FEAC83800D5164332
:100490003E60DBF800605F46D1F8048096435FEA77
:1004A000883800D516433E60DEF800607746D1F804
:1004B000048096435FEAC82800D516433E60094F82
:1004C0000C373E68D1F8048096435FEA882800D54F
:1004D00016433E605B1C0A6832FA03F67FF44CAFA9
:1004E00000F00AB800040140001002400000014082
:1004F00000040048000800481CBCBDE8E08F00690B
:10050000084000D0012070470AB1816170478162C4
:100510007047000001488068704700000400002018
:10052000024881680278114481607047040000200D
:1005300010B50024032000F071F8002000F008F846
:1005400008B1012401E000F025F8204610BD0000AC
:1005500070B50E4E05460024307898B14FF47A718C
:10056000B1FBF0F00A490968B1FBF0F000F0B6FD0C
:1005700040B9102D06D200222946501E00F02EF858
:10058000756000E00124204670BD000004000020DA
:1005900010000020094808B5016E41F00101016614
:1005A000016E01F001010091816D41F08051816582
:1005B000806D00F08050009008BD000000100240E7
:1005C000002809DB00F01F02012191404009800052
:1005D00000F1E020C0F8001170470000F0B40E4BAD
:1005E0001B680C46C3F30223C3F10705042D00D991
:1005F0000425191D072901D2002300E0DB1E012676
:1006000006FA05F1491E214099409E40761E16408B
:100610003143F0BC01F0E3BF0CED00E0064900F00F
:10062000070208684FF6FF03184040EA0220034A19
:1006300010430860704700000CED00E00000FA0570
:100640001649B0F5007F0868C0F3412009D00228A0
:1006500005D0086820F4C06040F480600860002085
:1006600070470128FBD0086820F4C06040F4007097
:1006700008600B483222006850430A4AB0FBF2F08F
:10068000401C00E0401E4A69520501D50028F9D1FE
:1006900048694005E3D50320704700000070004022
:1006A0001000002040420F000248006800F4C060C3
:1006B00070470000007000400248016841F48071FA
:1006C00001607047007000400248016841F0040179
:1006D00001607047001002402DE9F84F04460027E2
:1006E00000889C4D3E46000515D5E06B60B1B0F525
:1006F000000F04D0B0F5400F2BD001270AE0E868C6
:1007000040F48030E86024E00021201D01F014FA5C
:1007100007001ED03E462068800338D5A86D4FF0F4
:100720000008C00009D4A86D40F08050A865A86DED
:100730004FF0010800F080500090DFF81CA2DAF8BA
:10074000001041F48071CAF80010FFF7E3FE814603
:1007500010E0D5F88800E16B20F440000843C5F8AC
:100760008800D8E7FFF7D6FEA0EB0900022801D9E0
:10077000032704E0DAF80000C005F3D5EFB33E46E6
:10078000B8F1000F03D0A86D20F08050A865207844
:10079000C00707D0D5F88800216A20F0030008437D
:1007A000C5F888002078800707D5D5F88800616AE9
:1007B00020F00C000843C5F888002078800607D593
:1007C000D5F88800A16A20F440600843C5F8880085
:1007D0002088800507D5D5F88800616B20F440207B
:1007E0000843C5F888002088400509D5D5F8880059
:1007F000A16B20F44010084300E02EE0C5F888000B
:100800002078400607D5D5F88800E16A20F44050EA
:100810000843C5F888002088C00507D5D5F88800AA
:10082000216B20F440300843C5F8880020884FF041
:10083000006780044FF080684ED5D5F88800216CA1
:1008400020F040600843C5F88800206CB8423BD1D6
:10085000E86840F48010E8603EE0D5F8900010F4BD
:10086000407014D0216D814211D0D5F89000D5F898
:10087000901020F4407041F48031C5F89010D5F804
:10088000901021F48031C5F89010C5F89000C00791
:1008900011D0FFF73FFE074641F2883907E000BF5D
:1008A000FFF738FEC11B494501D9032668E7D5F893
:1008B00090008007F4D5D5F89000216D20F44070A9
:1008C0000843C5F890005BE7404505D10121201D94
:1008D00001F032F900B106462068400317D5D5F87B
:1008E0008800616C20F040600843C5F88800606CA7
:1008F000B84204D1E86840F48010E86007E0404561
:1009000005D10121201D01F017F900B1064620880C
:10091000400411D5D5F88800A16C20F04050084360
:10092000C5F88800A06CB0F1805F05D10221201DC0
:1009300001F002F900B106462088000406D555F8FA
:10094000880FE16C20F0804008432860304600F0BA
:1009500005B80000001002400070004018BCBDE85F
:10096000E08F00002DE9F0470F46050058D0404EBB
:10097000306800F00700B84209D2306820F0070064
:1009800038433060306800F00700B84248D128781A
:10099000384CC0072CD06868032811D0022812D028
:1009A000216898B1490500293ADAA16821F00301CC
:1009B0000143A160FFF7AEFD804641F2883910E0A7
:1009C00021688901EFE721688903ECE78907EAE7F5
:1009D000FFF7A0FDA0EB0801494502D90320BDE8BF
:1009E000F087A068696800F00C00B0EB810FEFD1D0
:1009F0002878800705D5A068A96820F0F000084392
:100A0000A060306800F00700B8420BD9306820F0D1
:100A1000070038433060306800F00700B84201D06A
:100A20000120DCE72878400705D5A068E96820F4B4
:100A3000E0600843A0602878000706D5A06829690F
:100A400020F4605040EAC100A06000F03FF8A168C7
:100A5000094AC1F30311515C01F01F01C840074965
:100A6000086007480068BDE8F047FFF771BD000067
:100A7000002002400010024038270008100000202B
:100A8000080000200548064900688968054AC1F346
:100A90000221515C01F01F01C84070471000002086
:100AA0000010024078270008054806490068896858
:100AB000054AC1F3C221515C01F01F01C8407047D3
:100AC00010000020001002407827000870B525496A
:100AD000002318468A68CC6812F00C0204F0030662
:100AE000214C4FEA640509D00C2A05D0042A32D0E3
:100AF000082A00D1284670BD012E10D10B681B07B3
:100B000004D4D1F89430C3F3032302E00B68C3F399
:100B10000313164E56F82330DAB10C2AEBD1C8680D
:100B200000F00300022818D0032818D01846CA681D
:100B3000CB68C2F30212C3F306234343521CB3FB38
:100B4000F2F2C868C0F34160401C4000B2FBF0F014
:100B500070BD184670BD204670BD2046E7E72846A8
:100B6000E5E70000001002400024F40048270008D8
:100B70002DE9F84304006FD0FE4DA86800F00C0684
:100B8000E86800F003072078C00664D576B10C2E23
:100B900001D1012F0AD0A069002828687AD040F03E
:100BA00001002860FFF7B6FC80465DE028688007FA
:100BB00002D5A0690028DED0216A2868000703D585
:100BC000286800F0F00004E0D5F89400F02202EA72
:100BD0001010814216D9084601F044F800283BD194
:100BE000286840F0080028602868216A20F0F0009A
:100BF000084328606868E16920F47F4040EA0120EA
:100C0000686016E0286840F0080028602868216ABB
:100C100020F0F000084328606868E16920F47F4014
:100C200040EA0120686026B9206A01F01BF800281C
:100C3000D5D1FFF74BFFA968CF4AC1F30311515C2F
:100C400001F01F01C840CD490860CD480068FFF79A
:100C50007FFC00287ED12EE0CAE000BFFFF75AFCDF
:100C6000A0EB0800022876D828688007F6D5286807
:100C700040F0080028602868216A20F0F00008434E
:100C800028606868E16920F47F4040EA01206860DC
:100C900011E0FFE720F001002860FFF73BFC8046F1
:100CA00006E000BFFFF736FCA0EB08000228DAD808
:100CB00028688007F6D42078C00740D0082E18D0C6
:100CC0000C2E01D1032F14D06068B0F5803F17D0EF
:100CD000B0F5A02F286817D020F48030286028684D
:100CE00020F4802028606068E0B1FFF713FC8046A4
:100CF00014E02868800322D56068002878D01EE0C0
:100D0000286840F48030EDE740F480202860F7E761
:100D1000FFF700FCA0EB08006428A4D82868800333
:100D2000F6D50CE0FFF7F6FB804605E0FFF7F2FB97
:100D3000A0EB0800642896D828688003F6D42078B1
:100D400080073BD5042E11D00C2E01D1022F0DD0DF
:100D5000E06801E0B6E1FFE0002828681ED040F41A
:100D600080702860FFF7D6FB07460CE02868400536
:100D70000CD5E0680028C1D008E000BFFFF7CAFB2F
:100D8000C01B022893D828684005F7D56868217CE5
:100D900020F0FE4040EA016068600FE020F48070BF
:100DA0002860FFF7B7FB074605E000BFFFF7B2FB7F
:100DB000C01B0228B1D828684005F7D42078000766
:100DC00029D560690028D5F8940012D040F00100C0
:100DD000C5F89400FFF79EFB074604E0FFF79AFB77
:100DE000C01B022899D8D5F894008007F6D512E0E8
:100DF0002BE120F00100C5F89400FFF78BFB0746BC
:100E000005E000BFFFF786FBC01B022885D8D5F898
:100E100094008007F6D42078400766D5A86D002797
:100E2000C00008D4A86D40F08050A865A86D0127C7
:100E300000F08050009053480168C90512D4016841
:100E4000814641F480710160FFF764FB804605E054
:100E5000FFF760FBA0EB080002287DD8D9F800005E
:100E6000C005F5D5A068012816D00528D5F8900052
:100E700017D020F00100C5F89000D5F8900020F0C0
:100E8000040000BFC5F89000A06841F28839C0B1E5
:100E9000FFF740FB80460FE0D5F8900040F00100DE
:100EA000F0E740F00400C5F89000F5E7FFF732FBEB
:100EB000A0EB080149454FD8D5F890008007F5D53B
:100EC0000EE0FFF727FB804606E000BFFFF722FB9E
:100ED000A0EB080149453FD8D5F890008007F5D42C
:100EE0001FB1A86D20F08050A8652078800628D515
:100EF000606A0028D5F8980012D040F00100C5F8CB
:100F00009800FFF707FB074605E000BFFFF702FB6D
:100F1000C01B022820D8D5F898008007F6D510E02D
:100F200020F00100C5F89800FFF7F4FA074604E046
:100F3000FFF7F0FAC01B02280ED8D5F898008007FA
:100F4000F6D4A06AA8B1022824D00C2E7DD028683F
:100F500020F08070286000E0B3E02868000103D42E
:100F6000E86820F00300E860E86807490840E860A6
:100F70000CE09FE00010024038270008100000201D
:100F80000800002000700040FFFFEEFEFFF7C2FAED
:100F9000044699E0E868E26A00F00301914226D134
:100FA000216B00F070020901103991421FD1626B70
:100FB00000F4FE41B1EB022F19D194F8382000F073
:100FC0007841B1EBC26F12D1A18F00F4C002490881
:100FD0004905A1F50011914209D194F8401000F0A3
:100FE000C06049084906A1F1007181424BD00C2E26
:100FF0006FD0286840016CD4286820F08070286089
:10100000FFF788FA064604E0FFF784FA801B0228FF
:1010100057D828688001F7D4F4E90B016FF00F026C
:1010200002EB01110843218A5204490802EB4151A5
:10103000A26841EA02210843217D4FF07E4249081F
:1010400002EB41610843217B00E042E040EAC160DD
:10105000E968214A11400843E860286840F0807040
:101060002860E86840F08070E860FFF753FA0446B3
:1010700005E000BFFFF74EFA001B022821D82868C0
:101080008001F7D523E02868800120D4286840F04B
:1010900080702860E86840F08070E860FFF73AFAF6
:1010A000044604E0FFF736FA001B022809D8286836
:1010B0008001F7D50BE000BFFFF72CFA001B0228D8
:1010C00002D90320BDE8F88328688001F4D4002009
:1010D000F8E70120F6E700008C809D0110B5401E66
:1010E000B0F1807F01D3012010BD4FF0E02460619A
:1010F0000F21601701F073FA0020A0610720206122
:10110000002010BDF0B590F83C20012A29D0012420
:1011100080F83C40022280F83D2003685A689D68B0
:10112000114EB34203D122F470074A683A4322F0C9
:1011300070070A683A435A600268B24205D0B2F1B9
:10114000804F02D0094B9A4204D1896825F0800370
:101150001943916080F83D40002180F83C1008461A
:10116000F0BD0220F0BD0000002C01400040014015
:1011700010B5040003D094F83D0010B107E0012041
:1011800010BD002084F83C00204600F023F8022027
:1011900084F83D00211D206800F012FE012084F833
:1011A000480084F83E0084F83F0084F8400084F84A
:1011B000410084F8420084F8430084F8440084F835
:1011C000450084F8460084F8470084F83D0000207C
:1011D00010BD000008B50068B0F1804F08D1054887
:1011E000816D41F001018165806D00F0010000908A
:1011F00008BD00000010024070B5044690F83C00A5
:10120000012817D0012584F83C50022084F83D00C5
:10121000226890682E4B184020F47F409060086848
:10122000502830D00DDC20284DD005DC98B3102894
:101230003BD148E0022070BD302844D0402834D152
:1012400039E0602828D0702806D0B0F5805F2CD017
:10125000B0F5005F29D10AE0CB68D1E9012120680F
:1012600000F0F1FD2068816841F0770109E0CB686A
:10127000D1E90121206800F0E6FD2068816841F491
:101280008041816011E0CA684968206800F02CFF45
:101290005021206807E016E0CA684968206800F01D
:1012A00034FF6021206800F0D8FD84F83D50002014
:1012B00084F83C0070BDCA684968206800F014FFDB
:1012C00040212068EFE7226801461046EBE7000066
:1012D00088FFFEFF10B586B0044614216846FEF76D
:1012E000AEFF2068B0F1804F15D10C48C16C41F0C1
:1012F0000101C164C06C022100F0010005900120D1
:10130000CDE9000100210291CDE9031069464FF0BB
:101310009040FFF723F806B010BD00000010024017
:1013200070B5044690F83C000D4601280BD0012012
:1013300084F83C000C2A45D007DC5AB1042A1BD0A3
:10134000082A78D12CE0022070BD102A4ED0142A31
:1013500071D15DE0206800F089FD2068816941F06D
:10136000080181612068816921F0040181612068A0
:1013700081692A69114311E0206800F0B3FD2068FB
:10138000816941F4006181612068816921F4806193
:101390008161206881692A6941EA022181614AE00C
:1013A000206800F0DBFD2068C16941F00801C161DF
:1013B0002068C16921F00401C1612068C1692A69FE
:1013C000114311E0206800F003FE2068C16941F478
:1013D0000061C1612068C16921F48061C161206838
:1013E000C1692A6941EA0221C16124E0206800F054
:1013F0001FFE2068416D41F0080141652068416D84
:1014000021F0040141652068416D2A69114311E012
:10141000206800F03BFE2068416D41F400614165A9
:101420002068416D21F4806141652068416D2A6921
:1014300041EA02214165002084F83C0070BD10B5EE
:10144000040003D094F83D0010B107E0012010BD66
:10145000002084F83C00204600F022F8022084F8A6
:101460003D00211D206800F0ABFC012084F84800FD
:1014700084F83E0084F83F0084F8400084F841007E
:1014800084F8420084F8430084F8440084F845005E
:1014900084F8460084F8470084F83D00002010BD21
:1014A0007047000010B50446022269B1042912D029
:1014B000082917D00C291CD0102921D094F84300FA
:1014C000012824D0012010BD94F83E000128F9D154
:1014D00084F83E201DE094F83F000128F2D184F802
:1014E0003F2016E094F840000128EBD184F840201A
:1014F0000FE094F841000128E4D184F8412008E08D
:1015000094F842000128DDD184F8422001E084F8FB
:1015100043200122206800F089FC12492068124A09
:10152000884204D0904202D0104B984203D1436CC1
:1015300043F4004343642068884204D0B0F1804FF4
:1015400001D0904207D18168094A1140062906D08E
:10155000B1F5803F03D0016841F001010160002036
:1015600010BD0000002C014000400140004401403B
:1015700007000100704770472DE9F04102680446FA
:10158000D0691168936840F60F0528424FF00005B6
:1015900005D186067BD58E0679D5216E88E04D4F24
:1015A00003F001060F40374371D0C70707D0CF05BE
:1015B00005D501271762E26F42F00102E267820758
:1015C00008D5DA0706D0276802223A62E26F42F0B5
:1015D0000402E267420708D5DA0706D0236804222E
:1015E0001A62E26F42F00202E26702070AD501F0D6
:1015F0002002324306D0236808221A62E26F42F0CA
:101600000802E267020509D54A0107D523684FF4AD
:1016100000621A62E26F42F02002E267E26F002A83
:101620002ED0800605D5880603D5216E09B1204647
:101630008847E06F21688968490602D410F0280FB6
:1016400020D0204600F00DFE20688168490614D5A0
:10165000816821F040018160E06E70B11E498163B4
:10166000E06EFEF742FE00280AD0E06E816B00E0DB
:101670002046BDE8F041084709E02046FFF77BFF20
:10168000BDE8F0812046FFF776FFE567F8E7C60280
:1016900009D55B0207D54FF4801010622046BDE8E3
:1016A000F041FFF767BF030605D50B0603D5616E52
:1016B0000029DDD1E4E74006E2D54806E0D511680F
:1016C000204621F04001116020216167656600F02D
:1016D0006CF9D5E7200100044F22000810B5040082
:1016E00002D0606F10B107E0012010BD002084F827
:1016F0007000204600F026F824206067206801680A
:1017000021F001010160204600F0BAFD0128ECD073
:10171000606A10B1204600F00AFD2068416821F49B
:10172000904141602068816821F02A018160206831
:10173000016841F0010101602046BDE8104000F061
:101740005ABD0000F0B587B0044614216846FEF784
:1017500076FD284F26680022274902230324072507
:101760004FF09040BE421FD10E6E46F480460E668A
:101770000E6E06F480460596CE6C46F00106CE64E9
:10178000C96C02AE01F0010105916102CDE90013BF
:1017900086E834006946FEF7E1FD00221146252067
:1017A000FEF71CFF252021E0144FBE4220D18E6D94
:1017B00046F400368E658E6D06F400360596CE6CC6
:1017C00046F00106CE64C96C02AE01F0010105913C
:1017D0000C21CDE9001386E834006946FEF7BEFD12
:1017E000002211462620FEF7F9FE2620FEF7E8FE2D
:1017F00007B0F0BD00380140001002400044004036
:101800002DE9F84F0446806F9A4616460D4620286B
:101810006BD1EDB1E6B194F87000012865D00120DC
:1018200084F870004FF00008C4F87C802220A06784
:10183000FEF770FEA4F858608146A4F85A60A068CC
:101840004FF48053FF21984208D122691AB11CE05D
:10185000012000F04CB840F2FF1116E07F2290B159
:10186000B0F1805F14D0A4F85C8000BFB4F85C7065
:10187000984201D1206990B12E46002584F87080ED
:1018800007F0FF0825E0266936B9A4F85C10EDE7FB
:10189000216909B13F21F8E7A4F85C20E6E70026BA
:1018A000ECE74B46002220212046CDF800A000F0B6
:1018B000D9FD08B10320CCE72068808C8EB100EA06
:1018C000080006F8010B00BFB4F85A00401EA4F847
:1018D0005A00B4F85A000028E3D12020A067002065
:1018E000B7E7384025F8020BEEE70220B1E718BC55
:1018F000BDE8E08F2DE9F8430446406F1F461646C9
:101900000D4620284FD1CDB1C6B194F87000012802
:1019100049D0012084F870004FF00008C4F87C80A2
:1019200021206067FEF7F6FDA4F850608146A4F818
:101930005260A068B0F5805F03D004E00120BDE8EC
:10194000F883206928B12E465FF0000584F8708086
:1019500010E00026FAE78021204600F083FDB8B9A8
:10196000C6B116F8010B21680885B4F85200401E74
:10197000A4F85200B4F852004B464FF00002009712
:101980000028E8D14FF04001204600F06BFD30B157
:101990000320D4E735F8020BC0F30800E3E720206A
:1019A00060670020CBE70220C9E77047FEE701220D
:1019B00080214FF09040FEF7A7BD000030B587B002
:1019C00014216846FEF73BFC1648C16C41F0040147
:1019D000C164C16C01F004010591C16C41F00101C9
:1019E000C164C06C4FF0904500F0010005900022EA
:1019F000C0212846FEF788FD00242020CDE9000400
:101A0000694628460294FEF7A9FCC02000900120F8
:101A1000CDE90104694628460394FEF79FFC07B010
:101A200030BD00000010024010B58EB000240794B5
:101A3000089409940A940B940C941C2168460D9404
:101A4000FEF7FDFB1D484FF0804101600321C0E916
:101A500001146321C0E903148461FFF789FB08B115
:101A600072B6FEE74FF48050079007A91348FFF7BE
:101A7000C3FB08B172B6FEE71048FFF7E0FC08B1FF
:101A800072B6FEE70B940BA90C480D94FFF73AFBD6
:101A900008B172B6FEE76020CDE90004029400228E
:101AA000694606480494FFF73BFC08B172B6FEE7AE
:101AB0000248FFF70FFC0EB010BD0000140000201C
:101AC0000C4810B50A4901604FF4E1314160002132
:101AD00081600C22C160C0E904128161C1610162B0
:101AE0004162FFF7FBFD002801D072B6FEE710BD92
:101AF00000380140600000200C4810B50A49016020
:101B00004FF4E1314160002181600C22C160C0E9E5
:101B100004128161C16101624162FFF7DFFD0028AB
:101B200001D072B6FEE710BD00440040E000002086
:101B3000FEE7FEE7704700002DE9F041444C054602
:101B40008846E0680026810728680DD0E16801F02A
:101B50000301814216D1A8B1E0686968C0F30210A0
:101B6000401C88420ED120E0012804D0022805D074
:101B7000032807D108E02168890701E021684905A9
:101B8000002907DB01265FE02168890302D4216870
:101B90004903F5E7E1686A686FF00F0321F073010C
:101BA00003EB021211430143E160206820F08060E2
:101BB0002060FEF7AFFC074605E000BFFEF7AAFC79
:101BC000C01B022837D820680001F7D4B8F1000FF5
:101BD00018D0B8F1010F1DD0287D4FF07E4140088C
:101BE00001EB4060A96840EA01202169194A1140CF
:101BF00008432061206840F080602060FEF78AFC86
:101C000007461AE0A868297B000240EAC160216902
:101C1000114AECE7288A1149400801EB4050A968B5
:101C200040EA012021690E4AE1E700BFFEF772FC9D
:101C3000C01B022801D9032606E020680001F5D563
:101C40002069A969084320613046BDE8F0810000A1
:101C500000100240FF80FFF9FF80FF070000E0FF57
:101C6000FF809FFFF8B51C4D06460024A86DC000FC
:101C700002D5FEF719FD0DE0A86D40F08050A86573
:101C8000A86D00F080500090FEF70EFDA96D21F0C8
:101C90008051A965B0F5007F04D0802E07D94FF0A0
:101CA00003040AE0802E08D9A02E01D804E001D157
:101CB000022402E0702E00D101240848016821F0BE
:101CC000070121430160006800F00700A04201D035
:101CD0000120F8BD0020F8BD0010024000200240A5
:101CE0007047FEF71DBC000010B5ACB0442115A82C
:101CF000FEF7A5FA142126A8FEF7A1FA542168469A
:101D0000FEF79DFAFEF7D8FC1B4850F8901F21F013
:101D10001801016014201590012000241790CDE9CE
:101D20001B0460201D901F9415A8FEF721FF08B129
:101D300072B6FEE70F20CDE92604289429940021ED
:101D400026A82A94FEF70EFE08B172B6FEE703201D
:101D50000090089409946846FEF7BEFC08B172B67C
:101D6000FEE74FF40070FEF76BFC08B172B6FEE7B9
:101D7000FEF7AAFC2CB010BD001002400D4801680F
:101D800041F4700101600C48016841F001010160FB
:101D9000002181600268094B1A4002608214C2600F
:101DA000026822F48022026081610249C003803906
:101DB0000860704788ED00E000100240FFFFF6EA7F
:101DC00070B50268164B4FF08046984201D0B04281
:101DD00003D122F070044A682243124C124D9842FB
:101DE00005D0B04203D0A04201D0A84203D122F4D2
:101DF0004076CA6832434E6922F080023243026064
:101E00008A68C2620A688262984203D0A04201D006
:101E1000A84201D1096901630121416170BD00003F
:101E2000002C0140004001400044014010B501F089
:101E30001F030121046A99408C430462016A9A409D
:101E40001143016210BD10B5846842EA032224F4F4
:101E50007F440A432243826010BD826822F07002F0
:101E60000A4342F00701816070470000F0B5026A42
:101E700022F001020262056A43688269154C25F06E
:101E8000020522400C6822F0030214438A68134EB4
:101E90002A43114D124FA84203D0B04201D0B8429C
:101EA00006D122F0080CCA6842EA0C0222F00402B1
:101EB000A84203D0B04201D0B84205D14D6923F405
:101EC00040731D438B692B434360846149684163C0
:101ED0000262F0BD8FFFFEFF002C01400040014078
:101EE0000044014030B5026A22F010020262046A26
:101EF00042688369154D2B400D6823F4407343EA13
:101F0000052524F020038C6843EA0413104CA042FA
:101F100007D1CC6823F0800343EA041323F0400385
:101F200005E00C4CA04202D00B4CA04207D14C69FA
:101F300022F4406242EA84028C6942EA84024260EE
:101F4000856149688163036230BD0000FF8FFFFE39
:101F5000002C0140004001400044014030B5026ABD
:101F600022F480720262046A4268C369144D2B40F5
:101F70000D6823F003031D4324F400738C6843EAC7
:101F80000423104CA04207D1CC6823F4006343EA39
:101F9000042323F4806305E00B4CA04202D00B4CD9
:101FA000A04207D14C6922F4405242EA04128C69E3
:101FB00042EA04124260C5614968C163036230BDF0
:101FC0008FFFFEFF002C0140004001400044014013
:101FD00030B5026A22F480520262046A4268C36920
:101FE0000F4D24F400542B400D6823F4407343EA52
:101FF00005238D6844EA05340A4DA84205D00A4DF0
:10200000A84202D0094DA84204D14D6922F4804271
:1020100042EA85124260C36149680164046230BDCE
:10202000FF8FFFFE002C01400040014000440140B2
:1020300030B5026A22F480320262046A4268436D5B
:102040000E4D2B400D681D4324F400330C8943EAE8
:1020500004430B4CA04205D00A4CA04202D00A4CCB
:10206000A04204D14C6922F4803242EA0422426048
:10207000456549688165036230BD00008FFFFEFF42
:10208000002C0140004001400044014030B5026A8C
:1020900022F480120262046A4268436D0E4D24F4F9
:1020A00000142B400D6843EA05230D8944EA0554CA
:1020B0000A4DA84205D00A4DA84202D0094DA842B7
:1020C00004D14D6922F4802242EA852242604365B0
:1020D0004968C165046230BDFF8FFFFE002C0140DE
:1020E000004001400044014010B5036A046A24F036
:1020F00001040462846924F0F00444EA021423F029
:102100000A020A438461026210BD10B5036A23F01B
:10211000100303628369046A23F4704343EA0232C2
:1021200024F0A00343EA01118261016210BD90F81E
:102130002410C90706D001684A68836A22F4003275
:102140001A434A6090F82410890706D501684A6846
:10215000C36A22F480321A434A6090F82410490777
:1021600006D501684A68036B22F480221A434A604C
:1021700090F82410090706D501684A68436B22F4D9
:1021800000421A434A6090F82410C90606D5016837
:102190008A68836B22F480521A438A6090F8241074
:1021A000890606D501688A68C36B22F400521A4377
:1021B0008A6090F82410490611D501684A68036CBA
:1021C00022F480121A434A60016CB1F5801F06D1D7
:1021D00001684A68436C22F4C0021A434A6090F8CE
:1021E0002410090606D501684A68806C22F4002292
:1021F00002434A607047F8B500260446C667FEF7FA
:1022000089F90546206800686FF07E47000708D509
:102210002B4600224FF400112046009700F022F9CF
:1022200060B92068006840070AD52B4600224FF4A9
:1022300080012046009700F015F908B10320F8BD91
:1022400020206067A06784F870600020F8BD10B59A
:10225000806A0021A0F85A10A0F85210FFF78BF9FD
:1022600010BD01680A6822F490720A6001688A68E9
:1022700022F001028A6020218167002101667047F7
:102280002DE9F0410446016880682269E369104342
:10229000626900251A4310436B4F0A686B4B1A4062
:1022A00002430A6020684168E26821F4405111430A
:1022B00041602168A069B94201D0226A10438A684E
:1022C00022F4306202438A606149236861488B428C
:1022D0000DD1D0F8880010F0030006D0012838D0C6
:1022E000022834D0032821D135E001211FE05A49CA
:1022F0008B420BD1D0F8880010F00C0025D00428B8
:1023000027D0082823D00C2810D124E0BB420DD1BF
:10231000D0F8880010F4406017D0B0F5806F18D066
:10232000B0F5006F13D0B0F5406F14D010214B48BA
:1023300000264FF40042BB422FD171B1022912D0C6
:1023400004290DD0082973D125E00021EFE70221EF
:10235000EDE70421EBE70821E9E7FEF793FB01E055
:10236000FEF7B4FBF0B3626802EB420181425FD832
:10237000B0EB023F5CD8010E000273084FEA32074F
:10238000C01959410023FDF71FFF354AA0F54071E0
:10239000914251D94CE01046E5E7E3694FF6EF77FB
:1023A000934229D1092943D2DFE801F005080E4202
:1023B0000B4242422400FEF765FB04E0FEF774FB8B
:1023C00001E0FEF783FB68B14100606801EB50015A
:1023D000B1FBF0F080B2A0F11001B94228D84FF65D
:1023E000F07100E02AE00140C0F3420001432068A0
:1023F000C16023E01046E7E7092919D2DFE801F0C0
:1024000005080E180B1818181A00FEF73BFB04E01D
:10241000FEF74AFB01E0FEF759FB78B1616800EB7B
:102420005100B0FBF1F080B2A0F11001B94203D924
:10243000012503E01046F1E72168C86026662846BA
:102440006666BDE8F081000000800040F369FFEFA0
:102450000038014000100240004400400024F40015
:10246000FFFC0F002DE9F0479A4617460E4604463A
:102470004FF000094FF02008089D39E0681C37D064
:10248000FEF748F8A0EB0A00A84222D80DB3206856
:10249000016849072CD5C069C043000528D42168CC
:1024A0004FF4006008622068016821F4D071016077
:1024B0002068816821F001018160C4F87480C4F84B
:1024C0007880C4F87C8000BF84F870900320BDE859
:1024D000F0872068016821F4D0710160206881686C
:1024E00021F001018160C4F87480C4F87880EBE7C2
:1024F0002068C06936EA000004D00020B842BDD090
:102500000020E4E70120F9E70148FFF735B80000B3
:1025100060000020F8B54FF0FF373B4601226946C6
:102520001B48FFF76DF93B46012269461848FFF743
:10253000E1F99DF800000025012662280ED115481A
:10254000017821B105703B46102213A103E006700B
:102550003B460F2214A10E48FFF7CCF99DF800006E
:102560006C2811D1144C207838B125703B460F22CD
:1025700012A10748FFF7BEF906E03B460E2213A161
:102580000348FFF7B7F926700148FEF7F5FFF8BDDD
:10259000E0000020000000200A0D2042555A5A4554
:1025A00052204F46460A0D000A0D2042555A5A4500
:1025B00052204F4E0A0D0000010000200A0D204C51
:1025C00049474854204F46460A0D00000A0D204C4A
:1025D00049474854204F4E0A0D000000FEE7090706
:1025E000090E002804DB00F1E02080F80014704799
:1025F00000F00F0000F1E02080F8141D704702E0A9
:1026000008C8121F08C1002AFAD17047704700207D
:1026100001E001C1121F002AFBD17047FDF788FFBE
:10262000FFF762FBFFF7CAF9FFF74AFAFFF764FA10
:10263000FFF7FAF900213448FEF734FF324D4FF02E
:10264000320B2968C1F834B005F1CC00006801688C
:1026500041F0200101604FF47A79DFF8B0804C46F8
:102660004FF0000A4FF090464FF0FF3720213046E0
:10267000FDF745FF60B324483B46122224A1CC302D
:10268000FFF738F998F8010010B1FFF790F904E06E
:10269000002280213046FDF737FF98F8000028B16E
:1026A0002968C1F834B0FDF709FE02E02968C1F8D5
:1026B00034A098F80000641E08B9002CD6DC12483B
:1026C0003B46022217A14C30FFF714F94C46CDE7E8
:1026D000002280213046FDF717FF002240213046BE
:1026E000FDF712FF2968C1F834A007483B460C22C9
:1026F0000DA1CC30FFF7FEF803483B4602220DA1A6
:102700004C30FFF7F7F8B1E714000020000000207C
:102710006D6F74696F6E2064657465637465640DB4
:102720000A000000630000004E6F206D6F74696F37
:102730006E0D0A006E0000000000000000000000A6
:102740000102030406070809A0860100400D0300EA
:10275000801A060000350C0040420F0080841E00E5
:1027600000093D0000127A000024F40000366E01DA
:102770000048E801006CDC020000000001020304D4
:10278000A02700080000002014000000FE2500081B
:10279000B4270008140000204C0500000E26000895
:1027A0000101000001000000100000000000000016
:0427B00000093D00DF
:040000050800018D61
:00000001FF
